{
  "_format": "hh-sol-artifact-1",
  "contractName": "AlphaPunk",
  "sourceName": "contracts/AlphaPunks.sol",
  "abi": [
    {
      "inputs": [
        {
          "internalType": "string",
          "name": "name",
          "type": "string"
        },
        {
          "internalType": "string",
          "name": "symbol",
          "type": "string"
        },
        {
          "internalType": "string",
          "name": "baseURI",
          "type": "string"
        },
        {
          "internalType": "uint256",
          "name": "_maxTokenIds",
          "type": "uint256"
        },
        {
          "internalType": "uint256",
          "name": "price",
          "type": "uint256"
        }
      ],
      "stateMutability": "nonpayable",
      "type": "constructor"
    },
    {
      "anonymous": false,
      "inputs": [
        {
          "indexed": true,
          "internalType": "address",
          "name": "owner",
          "type": "address"
        },
        {
          "indexed": true,
          "internalType": "address",
          "name": "approved",
          "type": "address"
        },
        {
          "indexed": true,
          "internalType": "uint256",
          "name": "tokenId",
          "type": "uint256"
        }
      ],
      "name": "Approval",
      "type": "event"
    },
    {
      "anonymous": false,
      "inputs": [
        {
          "indexed": true,
          "internalType": "address",
          "name": "owner",
          "type": "address"
        },
        {
          "indexed": true,
          "internalType": "address",
          "name": "operator",
          "type": "address"
        },
        {
          "indexed": false,
          "internalType": "bool",
          "name": "approved",
          "type": "bool"
        }
      ],
      "name": "ApprovalForAll",
      "type": "event"
    },
    {
      "anonymous": false,
      "inputs": [
        {
          "indexed": true,
          "internalType": "address",
          "name": "previousOwner",
          "type": "address"
        },
        {
          "indexed": true,
          "internalType": "address",
          "name": "newOwner",
          "type": "address"
        }
      ],
      "name": "OwnershipTransferred",
      "type": "event"
    },
    {
      "anonymous": false,
      "inputs": [
        {
          "indexed": true,
          "internalType": "address",
          "name": "from",
          "type": "address"
        },
        {
          "indexed": true,
          "internalType": "address",
          "name": "to",
          "type": "address"
        },
        {
          "indexed": true,
          "internalType": "uint256",
          "name": "tokenId",
          "type": "uint256"
        }
      ],
      "name": "Transfer",
      "type": "event"
    },
    {
      "stateMutability": "payable",
      "type": "fallback"
    },
    {
      "inputs": [],
      "name": "URI",
      "outputs": [
        {
          "internalType": "string",
          "name": "",
          "type": "string"
        }
      ],
      "stateMutability": "view",
      "type": "function"
    },
    {
      "inputs": [],
      "name": "_paused",
      "outputs": [
        {
          "internalType": "bool",
          "name": "",
          "type": "bool"
        }
      ],
      "stateMutability": "view",
      "type": "function"
    },
    {
      "inputs": [],
      "name": "_price",
      "outputs": [
        {
          "internalType": "uint256",
          "name": "",
          "type": "uint256"
        }
      ],
      "stateMutability": "view",
      "type": "function"
    },
    {
      "inputs": [
        {
          "internalType": "address",
          "name": "to",
          "type": "address"
        },
        {
          "internalType": "uint256",
          "name": "tokenId",
          "type": "uint256"
        }
      ],
      "name": "approve",
      "outputs": [],
      "stateMutability": "nonpayable",
      "type": "function"
    },
    {
      "inputs": [
        {
          "internalType": "address",
          "name": "owner",
          "type": "address"
        }
      ],
      "name": "balanceOf",
      "outputs": [
        {
          "internalType": "uint256",
          "name": "",
          "type": "uint256"
        }
      ],
      "stateMutability": "view",
      "type": "function"
    },
    {
      "inputs": [
        {
          "internalType": "uint256",
          "name": "tokenId",
          "type": "uint256"
        }
      ],
      "name": "getApproved",
      "outputs": [
        {
          "internalType": "address",
          "name": "",
          "type": "address"
        }
      ],
      "stateMutability": "view",
      "type": "function"
    },
    {
      "inputs": [
        {
          "internalType": "address",
          "name": "owner",
          "type": "address"
        },
        {
          "internalType": "address",
          "name": "operator",
          "type": "address"
        }
      ],
      "name": "isApprovedForAll",
      "outputs": [
        {
          "internalType": "bool",
          "name": "",
          "type": "bool"
        }
      ],
      "stateMutability": "view",
      "type": "function"
    },
    {
      "inputs": [],
      "name": "maxTokenIds",
      "outputs": [
        {
          "internalType": "uint256",
          "name": "",
          "type": "uint256"
        }
      ],
      "stateMutability": "view",
      "type": "function"
    },
    {
      "inputs": [],
      "name": "mint",
      "outputs": [],
      "stateMutability": "payable",
      "type": "function"
    },
    {
      "inputs": [],
      "name": "name",
      "outputs": [
        {
          "internalType": "string",
          "name": "",
          "type": "string"
        }
      ],
      "stateMutability": "view",
      "type": "function"
    },
    {
      "inputs": [],
      "name": "owner",
      "outputs": [
        {
          "internalType": "address",
          "name": "",
          "type": "address"
        }
      ],
      "stateMutability": "view",
      "type": "function"
    },
    {
      "inputs": [
        {
          "internalType": "uint256",
          "name": "tokenId",
          "type": "uint256"
        }
      ],
      "name": "ownerOf",
      "outputs": [
        {
          "internalType": "address",
          "name": "",
          "type": "address"
        }
      ],
      "stateMutability": "view",
      "type": "function"
    },
    {
      "inputs": [],
      "name": "renounceOwnership",
      "outputs": [],
      "stateMutability": "nonpayable",
      "type": "function"
    },
    {
      "inputs": [
        {
          "internalType": "address",
          "name": "from",
          "type": "address"
        },
        {
          "internalType": "address",
          "name": "to",
          "type": "address"
        },
        {
          "internalType": "uint256",
          "name": "tokenId",
          "type": "uint256"
        }
      ],
      "name": "safeTransferFrom",
      "outputs": [],
      "stateMutability": "nonpayable",
      "type": "function"
    },
    {
      "inputs": [
        {
          "internalType": "address",
          "name": "from",
          "type": "address"
        },
        {
          "internalType": "address",
          "name": "to",
          "type": "address"
        },
        {
          "internalType": "uint256",
          "name": "tokenId",
          "type": "uint256"
        },
        {
          "internalType": "bytes",
          "name": "data",
          "type": "bytes"
        }
      ],
      "name": "safeTransferFrom",
      "outputs": [],
      "stateMutability": "nonpayable",
      "type": "function"
    },
    {
      "inputs": [
        {
          "internalType": "address",
          "name": "operator",
          "type": "address"
        },
        {
          "internalType": "bool",
          "name": "approved",
          "type": "bool"
        }
      ],
      "name": "setApprovalForAll",
      "outputs": [],
      "stateMutability": "nonpayable",
      "type": "function"
    },
    {
      "inputs": [
        {
          "internalType": "bool",
          "name": "val",
          "type": "bool"
        }
      ],
      "name": "setPaused",
      "outputs": [],
      "stateMutability": "nonpayable",
      "type": "function"
    },
    {
      "inputs": [
        {
          "internalType": "bytes4",
          "name": "interfaceId",
          "type": "bytes4"
        }
      ],
      "name": "supportsInterface",
      "outputs": [
        {
          "internalType": "bool",
          "name": "",
          "type": "bool"
        }
      ],
      "stateMutability": "view",
      "type": "function"
    },
    {
      "inputs": [],
      "name": "symbol",
      "outputs": [
        {
          "internalType": "string",
          "name": "",
          "type": "string"
        }
      ],
      "stateMutability": "view",
      "type": "function"
    },
    {
      "inputs": [
        {
          "internalType": "uint256",
          "name": "index",
          "type": "uint256"
        }
      ],
      "name": "tokenByIndex",
      "outputs": [
        {
          "internalType": "uint256",
          "name": "",
          "type": "uint256"
        }
      ],
      "stateMutability": "view",
      "type": "function"
    },
    {
      "inputs": [],
      "name": "tokenIds",
      "outputs": [
        {
          "internalType": "uint256",
          "name": "",
          "type": "uint256"
        }
      ],
      "stateMutability": "view",
      "type": "function"
    },
    {
      "inputs": [
        {
          "internalType": "address",
          "name": "owner",
          "type": "address"
        },
        {
          "internalType": "uint256",
          "name": "index",
          "type": "uint256"
        }
      ],
      "name": "tokenOfOwnerByIndex",
      "outputs": [
        {
          "internalType": "uint256",
          "name": "",
          "type": "uint256"
        }
      ],
      "stateMutability": "view",
      "type": "function"
    },
    {
      "inputs": [
        {
          "internalType": "uint256",
          "name": "tokenId",
          "type": "uint256"
        }
      ],
      "name": "tokenURI",
      "outputs": [
        {
          "internalType": "string",
          "name": "",
          "type": "string"
        }
      ],
      "stateMutability": "view",
      "type": "function"
    },
    {
      "inputs": [],
      "name": "totalSupply",
      "outputs": [
        {
          "internalType": "uint256",
          "name": "",
          "type": "uint256"
        }
      ],
      "stateMutability": "view",
      "type": "function"
    },
    {
      "inputs": [
        {
          "internalType": "address",
          "name": "from",
          "type": "address"
        },
        {
          "internalType": "address",
          "name": "to",
          "type": "address"
        },
        {
          "internalType": "uint256",
          "name": "tokenId",
          "type": "uint256"
        }
      ],
      "name": "transferFrom",
      "outputs": [],
      "stateMutability": "nonpayable",
      "type": "function"
    },
    {
      "inputs": [
        {
          "internalType": "address",
          "name": "newOwner",
          "type": "address"
        }
      ],
      "name": "transferOwnership",
      "outputs": [],
      "stateMutability": "nonpayable",
      "type": "function"
    },
    {
      "inputs": [],
      "name": "withdraw",
      "outputs": [],
      "stateMutability": "nonpayable",
      "type": "function"
    },
    {
      "stateMutability": "payable",
      "type": "receive"
    }
  ],
  "bytecode": "0x60806040523480156200001157600080fd5b5060405162004299380380620042998339818101604052810190620000379190620002db565b8484816000908051906020019062000051929190620001a2565b5080600190805190602001906200006a929190620001a2565b5050506200008d62000081620000d460201b60201c565b620000dc60201b60201c565b82600b9080519060200190620000a5929190620001a2565b5081600e81905550670de0b6b3a764000081620000c3919062000407565b600c819055505050505050620005cc565b600033905090565b6000600a60009054906101000a900473ffffffffffffffffffffffffffffffffffffffff16905081600a60006101000a81548173ffffffffffffffffffffffffffffffffffffffff021916908373ffffffffffffffffffffffffffffffffffffffff1602179055508173ffffffffffffffffffffffffffffffffffffffff168173ffffffffffffffffffffffffffffffffffffffff167f8be0079c531659141344cd1fd0a4f28419497f9722a3daafe3b4186f6b6457e060405160405180910390a35050565b828054620001b090620004a8565b90600052602060002090601f016020900481019282620001d4576000855562000220565b82601f10620001ef57805160ff191683800117855562000220565b8280016001018555821562000220579182015b828111156200021f57825182559160200191906001019062000202565b5b5090506200022f919062000233565b5090565b5b808211156200024e57600081600090555060010162000234565b5090565b6000620002696200026384620003d1565b620003a8565b9050828152602081018484840111156200028257600080fd5b6200028f84828562000472565b509392505050565b600082601f830112620002a957600080fd5b8151620002bb84826020860162000252565b91505092915050565b600081519050620002d581620005b2565b92915050565b600080600080600060a08688031215620002f457600080fd5b600086015167ffffffffffffffff8111156200030f57600080fd5b6200031d8882890162000297565b955050602086015167ffffffffffffffff8111156200033b57600080fd5b620003498882890162000297565b945050604086015167ffffffffffffffff8111156200036757600080fd5b620003758882890162000297565b93505060606200038888828901620002c4565b92505060806200039b88828901620002c4565b9150509295509295909350565b6000620003b4620003c7565b9050620003c28282620004de565b919050565b6000604051905090565b600067ffffffffffffffff821115620003ef57620003ee62000572565b5b620003fa82620005a1565b9050602081019050919050565b6000620004148262000468565b9150620004218362000468565b9250817fffffffffffffffffffffffffffffffffffffffffffffffffffffffffffffffff04831182151516156200045d576200045c62000514565b5b828202905092915050565b6000819050919050565b60005b838110156200049257808201518184015260208101905062000475565b83811115620004a2576000848401525b50505050565b60006002820490506001821680620004c157607f821691505b60208210811415620004d857620004d762000543565b5b50919050565b620004e982620005a1565b810181811067ffffffffffffffff821117156200050b576200050a62000572565b5b80604052505050565b7f4e487b7100000000000000000000000000000000000000000000000000000000600052601160045260246000fd5b7f4e487b7100000000000000000000000000000000000000000000000000000000600052602260045260246000fd5b7f4e487b7100000000000000000000000000000000000000000000000000000000600052604160045260246000fd5b6000601f19601f8301169050919050565b620005bd8162000468565b8114620005c957600080fd5b50565b613cbd80620005dc6000396000f3fe6080604052600436106101a05760003560e01c806342842e0e116100ec5780638da5cb5b1161008a578063b88d4fde11610064578063b88d4fde1461059f578063c87b56dd146105c8578063e985e9c514610605578063f2fde38b14610642576101a7565b80638da5cb5b1461052057806395d89b411461054b578063a22cb46514610576576101a7565b80636352211e116100c65780636352211e1461046457806370a08231146104a1578063714cff56146104de578063715018a614610509576101a7565b806342842e0e146103d35780634f6ccce7146103fc5780635f76962114610439576101a7565b806316c38b3c11610159578063235b6ea111610133578063235b6ea11461032b57806323b872dd146103565780632f745c591461037f5780633ccfd60b146103bc576101a7565b806316c38b3c146102ac57806316c61ccc146102d557806318160ddd14610300576101a7565b806301ffc9a7146101a957806306fdde03146101e6578063081812fc14610211578063095ea7b31461024e5780631141d7de146102775780631249c58b146102a2576101a7565b366101a757005b005b3480156101b557600080fd5b506101d060048036038101906101cb9190612be2565b61066b565b6040516101dd91906130fd565b60405180910390f35b3480156101f257600080fd5b506101fb6106e5565b6040516102089190613118565b60405180910390f35b34801561021d57600080fd5b5061023860048036038101906102339190612c34565b610777565b6040516102459190613096565b60405180910390f35b34801561025a57600080fd5b5061027560048036038101906102709190612b7d565b6107bd565b005b34801561028357600080fd5b5061028c6108d5565b6040516102999190613118565b60405180910390f35b6102aa610967565b005b3480156102b857600080fd5b506102d360048036038101906102ce9190612bb9565b610a6a565b005b3480156102e157600080fd5b506102ea610a8f565b6040516102f791906130fd565b60405180910390f35b34801561030c57600080fd5b50610315610aa2565b60405161032291906133da565b60405180910390f35b34801561033757600080fd5b50610340610aaf565b60405161034d91906133da565b60405180910390f35b34801561036257600080fd5b5061037d60048036038101906103789190612a77565b610ab5565b005b34801561038b57600080fd5b506103a660048036038101906103a19190612b7d565b610b15565b6040516103b391906133da565b60405180910390f35b3480156103c857600080fd5b506103d1610bba565b005b3480156103df57600080fd5b506103fa60048036038101906103f59190612a77565b610c84565b005b34801561040857600080fd5b50610423600480360381019061041e9190612c34565b610ca4565b60405161043091906133da565b60405180910390f35b34801561044557600080fd5b5061044e610d3b565b60405161045b91906133da565b60405180910390f35b34801561047057600080fd5b5061048b60048036038101906104869190612c34565b610d41565b6040516104989190613096565b60405180910390f35b3480156104ad57600080fd5b506104c860048036038101906104c39190612a12565b610dc8565b6040516104d591906133da565b60405180910390f35b3480156104ea57600080fd5b506104f3610e80565b60405161050091906133da565b60405180910390f35b34801561051557600080fd5b5061051e610e86565b005b34801561052c57600080fd5b50610535610e9a565b6040516105429190613096565b60405180910390f35b34801561055757600080fd5b50610560610ec4565b60405161056d9190613118565b60405180910390f35b34801561058257600080fd5b5061059d60048036038101906105989190612b41565b610f56565b005b3480156105ab57600080fd5b506105c660048036038101906105c19190612ac6565b610f6c565b005b3480156105d457600080fd5b506105ef60048036038101906105ea9190612c34565b610fce565b6040516105fc9190613118565b60405180910390f35b34801561061157600080fd5b5061062c60048036038101906106279190612a3b565b611075565b60405161063991906130fd565b60405180910390f35b34801561064e57600080fd5b5061066960048036038101906106649190612a12565b611109565b005b60007f780e9d63000000000000000000000000000000000000000000000000000000007bffffffffffffffffffffffffffffffffffffffffffffffffffffffff1916827bffffffffffffffffffffffffffffffffffffffffffffffffffffffff191614806106de57506106dd8261118d565b5b9050919050565b6060600080546106f4906135d9565b80601f0160208091040260200160405190810160405280929190818152602001828054610720906135d9565b801561076d5780601f106107425761010080835404028352916020019161076d565b820191906000526020600020905b81548152906001019060200180831161075057829003601f168201915b5050505050905090565b60006107828261126f565b6004600083815260200190815260200160002060009054906101000a900473ffffffffffffffffffffffffffffffffffffffff169050919050565b60006107c882610d41565b90508073ffffffffffffffffffffffffffffffffffffffff168373ffffffffffffffffffffffffffffffffffffffff161415610839576040517f08c379a00000000000000000000000000000000000000000000000000000000081526004016108309061331a565b60405180910390fd5b8073ffffffffffffffffffffffffffffffffffffffff166108586112ba565b73ffffffffffffffffffffffffffffffffffffffff1614806108875750610886816108816112ba565b611075565b5b6108c6576040517f08c379a00000000000000000000000000000000000000000000000000000000081526004016108bd9061335a565b60405180910390fd5b6108d083836112c2565b505050565b6060600b80546108e4906135d9565b80601f0160208091040260200160405190810160405280929190818152602001828054610910906135d9565b801561095d5780601f106109325761010080835404028352916020019161095d565b820191906000526020600020905b81548152906001019060200180831161094057829003601f168201915b5050505050905090565b600d60009054906101000a900460ff16156109b7576040517f08c379a00000000000000000000000000000000000000000000000000000000081526004016109ae906132da565b60405180910390fd5b600e54600f54106109fd576040517f08c379a00000000000000000000000000000000000000000000000000000000081526004016109f49061339a565b60405180910390fd5b600c54341015610a42576040517f08c379a0000000000000000000000000000000000000000000000000000000008152600401610a399061333a565b60405180910390fd5b6001600f6000828254610a559190613499565b92505081905550610a6833600f5461137b565b565b610a72611399565b80600d60006101000a81548160ff02191690831515021790555050565b600d60009054906101000a900460ff1681565b6000600880549050905090565b600c5481565b610ac6610ac06112ba565b82611417565b610b05576040517f08c379a0000000000000000000000000000000000000000000000000000000008152600401610afc9061313a565b60405180910390fd5b610b108383836114ac565b505050565b6000610b2083610dc8565b8210610b61576040517f08c379a0000000000000000000000000000000000000000000000000000000008152600401610b589061315a565b60405180910390fd5b600660008473ffffffffffffffffffffffffffffffffffffffff1673ffffffffffffffffffffffffffffffffffffffff168152602001908152602001600020600083815260200190815260200160002054905092915050565b610bc2611399565b6000610bcc610e9a565b9050600047905060008273ffffffffffffffffffffffffffffffffffffffff1682604051610bf990613081565b60006040518083038185875af1925050503d8060008114610c36576040519150601f19603f3d011682016040523d82523d6000602084013e610c3b565b606091505b5050905080610c7f576040517f08c379a0000000000000000000000000000000000000000000000000000000008152600401610c76906131fa565b60405180910390fd5b505050565b610c9f83838360405180602001604052806000815250610f6c565b505050565b6000610cae610aa2565b8210610cef576040517f08c379a0000000000000000000000000000000000000000000000000000000008152600401610ce69061337a565b60405180910390fd5b60088281548110610d29577f4e487b7100000000000000000000000000000000000000000000000000000000600052603260045260246000fd5b90600052602060002001549050919050565b600e5481565b600080610d4d836117a6565b9050600073ffffffffffffffffffffffffffffffffffffffff168173ffffffffffffffffffffffffffffffffffffffff161415610dbf576040517f08c379a0000000000000000000000000000000000000000000000000000000008152600401610db6906132fa565b60405180910390fd5b80915050919050565b60008073ffffffffffffffffffffffffffffffffffffffff168273ffffffffffffffffffffffffffffffffffffffff161415610e39576040517f08c379a0000000000000000000000000000000000000000000000000000000008152600401610e309061325a565b60405180910390fd5b600360008373ffffffffffffffffffffffffffffffffffffffff1673ffffffffffffffffffffffffffffffffffffffff168152602001908152602001600020549050919050565b600f5481565b610e8e611399565b610e9860006117e3565b565b6000600a60009054906101000a900473ffffffffffffffffffffffffffffffffffffffff16905090565b606060018054610ed3906135d9565b80601f0160208091040260200160405190810160405280929190818152602001828054610eff906135d9565b8015610f4c5780601f10610f2157610100808354040283529160200191610f4c565b820191906000526020600020905b815481529060010190602001808311610f2f57829003601f168201915b5050505050905090565b610f68610f616112ba565b83836118a9565b5050565b610f7d610f776112ba565b83611417565b610fbc576040517f08c379a0000000000000000000000000000000000000000000000000000000008152600401610fb39061313a565b60405180910390fd5b610fc884848484611a16565b50505050565b6060610fd982611a72565b611018576040517f08c379a000000000000000000000000000000000000000000000000000000000815260040161100f906132ba565b60405180910390fd5b6000611022611ab3565b90506000815111611042576040518060200160405280600081525061106d565b8061104c84611b45565b60405160200161105d929190613052565b6040516020818303038152906040525b915050919050565b6000600560008473ffffffffffffffffffffffffffffffffffffffff1673ffffffffffffffffffffffffffffffffffffffff16815260200190815260200160002060008373ffffffffffffffffffffffffffffffffffffffff1673ffffffffffffffffffffffffffffffffffffffff16815260200190815260200160002060009054906101000a900460ff16905092915050565b611111611399565b600073ffffffffffffffffffffffffffffffffffffffff168173ffffffffffffffffffffffffffffffffffffffff161415611181576040517f08c379a00000000000000000000000000000000000000000000000000000000081526004016111789061319a565b60405180910390fd5b61118a816117e3565b50565b60007f80ac58cd000000000000000000000000000000000000000000000000000000007bffffffffffffffffffffffffffffffffffffffffffffffffffffffff1916827bffffffffffffffffffffffffffffffffffffffffffffffffffffffff1916148061125857507f5b5e139f000000000000000000000000000000000000000000000000000000007bffffffffffffffffffffffffffffffffffffffffffffffffffffffff1916827bffffffffffffffffffffffffffffffffffffffffffffffffffffffff1916145b80611268575061126782611c69565b5b9050919050565b61127881611a72565b6112b7576040517f08c379a00000000000000000000000000000000000000000000000000000000081526004016112ae906132fa565b60405180910390fd5b50565b600033905090565b816004600083815260200190815260200160002060006101000a81548173ffffffffffffffffffffffffffffffffffffffff021916908373ffffffffffffffffffffffffffffffffffffffff160217905550808273ffffffffffffffffffffffffffffffffffffffff1661133583610d41565b73ffffffffffffffffffffffffffffffffffffffff167f8c5be1e5ebec7d5bd14f71427d1e84f3dd0314c0f7b2291e5b200ac8c7c3b92560405160405180910390a45050565b611395828260405180602001604052806000815250611cd3565b5050565b6113a16112ba565b73ffffffffffffffffffffffffffffffffffffffff166113bf610e9a565b73ffffffffffffffffffffffffffffffffffffffff1614611415576040517f08c379a000000000000000000000000000000000000000000000000000000000815260040161140c9061329a565b60405180910390fd5b565b60008061142383610d41565b90508073ffffffffffffffffffffffffffffffffffffffff168473ffffffffffffffffffffffffffffffffffffffff16148061146557506114648185611075565b5b806114a357508373ffffffffffffffffffffffffffffffffffffffff1661148b84610777565b73ffffffffffffffffffffffffffffffffffffffff16145b91505092915050565b8273ffffffffffffffffffffffffffffffffffffffff166114cc82610d41565b73ffffffffffffffffffffffffffffffffffffffff1614611522576040517f08c379a0000000000000000000000000000000000000000000000000000000008152600401611519906131ba565b60405180910390fd5b600073ffffffffffffffffffffffffffffffffffffffff168273ffffffffffffffffffffffffffffffffffffffff161415611592576040517f08c379a00000000000000000000000000000000000000000000000000000000081526004016115899061321a565b60405180910390fd5b61159f8383836001611d2e565b8273ffffffffffffffffffffffffffffffffffffffff166115bf82610d41565b73ffffffffffffffffffffffffffffffffffffffff1614611615576040517f08c379a000000000000000000000000000000000000000000000000000000000815260040161160c906131ba565b60405180910390fd5b6004600082815260200190815260200160002060006101000a81549073ffffffffffffffffffffffffffffffffffffffff02191690556001600360008573ffffffffffffffffffffffffffffffffffffffff1673ffffffffffffffffffffffffffffffffffffffff168152602001908152602001600020600082825403925050819055506001600360008473ffffffffffffffffffffffffffffffffffffffff1673ffffffffffffffffffffffffffffffffffffffff16815260200190815260200160002060008282540192505081905550816002600083815260200190815260200160002060006101000a81548173ffffffffffffffffffffffffffffffffffffffff021916908373ffffffffffffffffffffffffffffffffffffffff160217905550808273ffffffffffffffffffffffffffffffffffffffff168473ffffffffffffffffffffffffffffffffffffffff167fddf252ad1be2c89b69c2b068fc378daa952ba7f163c4a11628f55a4df523b3ef60405160405180910390a46117a18383836001611e8e565b505050565b60006002600083815260200190815260200160002060009054906101000a900473ffffffffffffffffffffffffffffffffffffffff169050919050565b6000600a60009054906101000a900473ffffffffffffffffffffffffffffffffffffffff16905081600a60006101000a81548173ffffffffffffffffffffffffffffffffffffffff021916908373ffffffffffffffffffffffffffffffffffffffff1602179055508173ffffffffffffffffffffffffffffffffffffffff168173ffffffffffffffffffffffffffffffffffffffff167f8be0079c531659141344cd1fd0a4f28419497f9722a3daafe3b4186f6b6457e060405160405180910390a35050565b8173ffffffffffffffffffffffffffffffffffffffff168373ffffffffffffffffffffffffffffffffffffffff161415611918576040517f08c379a000000000000000000000000000000000000000000000000000000000815260040161190f9061323a565b60405180910390fd5b80600560008573ffffffffffffffffffffffffffffffffffffffff1673ffffffffffffffffffffffffffffffffffffffff16815260200190815260200160002060008473ffffffffffffffffffffffffffffffffffffffff1673ffffffffffffffffffffffffffffffffffffffff16815260200190815260200160002060006101000a81548160ff0219169083151502179055508173ffffffffffffffffffffffffffffffffffffffff168373ffffffffffffffffffffffffffffffffffffffff167f17307eab39ab6107e8899845ad3d59bd9653f200f220920489ca2b5937696c3183604051611a0991906130fd565b60405180910390a3505050565b611a218484846114ac565b611a2d84848484611e94565b611a6c576040517f08c379a0000000000000000000000000000000000000000000000000000000008152600401611a639061317a565b60405180910390fd5b50505050565b60008073ffffffffffffffffffffffffffffffffffffffff16611a94836117a6565b73ffffffffffffffffffffffffffffffffffffffff1614159050919050565b6060600b8054611ac2906135d9565b80601f0160208091040260200160405190810160405280929190818152602001828054611aee906135d9565b8015611b3b5780601f10611b1057610100808354040283529160200191611b3b565b820191906000526020600020905b815481529060010190602001808311611b1e57829003601f168201915b5050505050905090565b606060006001611b548461202b565b01905060008167ffffffffffffffff811115611b99577f4e487b7100000000000000000000000000000000000000000000000000000000600052604160045260246000fd5b6040519080825280601f01601f191660200182016040528015611bcb5781602001600182028036833780820191505090505b509050600082602001820190505b600115611c5e578080600190039150507f3031323334353637383961626364656600000000000000000000000000000000600a86061a8153600a8581611c48577f4e487b7100000000000000000000000000000000000000000000000000000000600052601260045260246000fd5b0494506000851415611c5957611c5e565b611bd9565b819350505050919050565b60007f01ffc9a7000000000000000000000000000000000000000000000000000000007bffffffffffffffffffffffffffffffffffffffffffffffffffffffff1916827bffffffffffffffffffffffffffffffffffffffffffffffffffffffff1916149050919050565b611cdd8383612262565b611cea6000848484611e94565b611d29576040517f08c379a0000000000000000000000000000000000000000000000000000000008152600401611d209061317a565b60405180910390fd5b505050565b611d3a84848484612480565b6001811115611d7e576040517f08c379a0000000000000000000000000000000000000000000000000000000008152600401611d75906133ba565b60405180910390fd5b6000829050600073ffffffffffffffffffffffffffffffffffffffff168573ffffffffffffffffffffffffffffffffffffffff161415611dc657611dc1816125a6565b611e05565b8373ffffffffffffffffffffffffffffffffffffffff168573ffffffffffffffffffffffffffffffffffffffff1614611e0457611e0385826125ef565b5b5b600073ffffffffffffffffffffffffffffffffffffffff168473ffffffffffffffffffffffffffffffffffffffff161415611e4857611e438161275c565b611e87565b8473ffffffffffffffffffffffffffffffffffffffff168473ffffffffffffffffffffffffffffffffffffffff1614611e8657611e85848261289f565b5b5b5050505050565b50505050565b6000611eb58473ffffffffffffffffffffffffffffffffffffffff1661291e565b1561201e578373ffffffffffffffffffffffffffffffffffffffff1663150b7a02611ede6112ba565b8786866040518563ffffffff1660e01b8152600401611f0094939291906130b1565b602060405180830381600087803b158015611f1a57600080fd5b505af1925050508015611f4b57506040513d601f19601f82011682018060405250810190611f489190612c0b565b60015b611fce573d8060008114611f7b576040519150601f19603f3d011682016040523d82523d6000602084013e611f80565b606091505b50600081511415611fc6576040517f08c379a0000000000000000000000000000000000000000000000000000000008152600401611fbd9061317a565b60405180910390fd5b805181602001fd5b63150b7a0260e01b7bffffffffffffffffffffffffffffffffffffffffffffffffffffffff1916817bffffffffffffffffffffffffffffffffffffffffffffffffffffffff191614915050612023565b600190505b949350505050565b600080600090507a184f03e93ff9f4daa797ed6e38ed64bf6a1f01000000000000000083106120af577a184f03e93ff9f4daa797ed6e38ed64bf6a1f01000000000000000083816120a5577f4e487b7100000000000000000000000000000000000000000000000000000000600052601260045260246000fd5b0492506040810190505b6d04ee2d6d415b85acef81000000008310612112576d04ee2d6d415b85acef81000000008381612108577f4e487b7100000000000000000000000000000000000000000000000000000000600052601260045260246000fd5b0492506020810190505b662386f26fc10000831061216757662386f26fc10000838161215d577f4e487b7100000000000000000000000000000000000000000000000000000000600052601260045260246000fd5b0492506010810190505b6305f5e10083106121b6576305f5e10083816121ac577f4e487b7100000000000000000000000000000000000000000000000000000000600052601260045260246000fd5b0492506008810190505b61271083106122015761271083816121f7577f4e487b7100000000000000000000000000000000000000000000000000000000600052601260045260246000fd5b0492506004810190505b6064831061224a5760648381612240577f4e487b7100000000000000000000000000000000000000000000000000000000600052601260045260246000fd5b0492506002810190505b600a8310612259576001810190505b80915050919050565b600073ffffffffffffffffffffffffffffffffffffffff168273ffffffffffffffffffffffffffffffffffffffff1614156122d2576040517f08c379a00000000000000000000000000000000000000000000000000000000081526004016122c99061327a565b60405180910390fd5b6122db81611a72565b1561231b576040517f08c379a0000000000000000000000000000000000000000000000000000000008152600401612312906131da565b60405180910390fd5b612329600083836001611d2e565b61233281611a72565b15612372576040517f08c379a0000000000000000000000000000000000000000000000000000000008152600401612369906131da565b60405180910390fd5b6001600360008473ffffffffffffffffffffffffffffffffffffffff1673ffffffffffffffffffffffffffffffffffffffff16815260200190815260200160002060008282540192505081905550816002600083815260200190815260200160002060006101000a81548173ffffffffffffffffffffffffffffffffffffffff021916908373ffffffffffffffffffffffffffffffffffffffff160217905550808273ffffffffffffffffffffffffffffffffffffffff16600073ffffffffffffffffffffffffffffffffffffffff167fddf252ad1be2c89b69c2b068fc378daa952ba7f163c4a11628f55a4df523b3ef60405160405180910390a461247c600083836001611e8e565b5050565b60018111156125a057600073ffffffffffffffffffffffffffffffffffffffff168473ffffffffffffffffffffffffffffffffffffffff16146125145780600360008673ffffffffffffffffffffffffffffffffffffffff1673ffffffffffffffffffffffffffffffffffffffff168152602001908152602001600020600082825461250c91906134ef565b925050819055505b600073ffffffffffffffffffffffffffffffffffffffff168373ffffffffffffffffffffffffffffffffffffffff161461259f5780600360008573ffffffffffffffffffffffffffffffffffffffff1673ffffffffffffffffffffffffffffffffffffffff16815260200190815260200160002060008282546125979190613499565b925050819055505b5b50505050565b6008805490506009600083815260200190815260200160002081905550600881908060018154018082558091505060019003906000526020600020016000909190919091505550565b600060016125fc84610dc8565b61260691906134ef565b90506000600760008481526020019081526020016000205490508181146126eb576000600660008673ffffffffffffffffffffffffffffffffffffffff1673ffffffffffffffffffffffffffffffffffffffff168152602001908152602001600020600084815260200190815260200160002054905080600660008773ffffffffffffffffffffffffffffffffffffffff1673ffffffffffffffffffffffffffffffffffffffff168152602001908152602001600020600084815260200190815260200160002081905550816007600083815260200190815260200160002081905550505b6007600084815260200190815260200160002060009055600660008573ffffffffffffffffffffffffffffffffffffffff1673ffffffffffffffffffffffffffffffffffffffff16815260200190815260200160002060008381526020019081526020016000206000905550505050565b6000600160088054905061277091906134ef565b90506000600960008481526020019081526020016000205490506000600883815481106127c6577f4e487b7100000000000000000000000000000000000000000000000000000000600052603260045260246000fd5b90600052602060002001549050806008838154811061280e577f4e487b7100000000000000000000000000000000000000000000000000000000600052603260045260246000fd5b906000526020600020018190555081600960008381526020019081526020016000208190555060096000858152602001908152602001600020600090556008805480612883577f4e487b7100000000000000000000000000000000000000000000000000000000600052603160045260246000fd5b6001900381819060005260206000200160009055905550505050565b60006128aa83610dc8565b905081600660008573ffffffffffffffffffffffffffffffffffffffff1673ffffffffffffffffffffffffffffffffffffffff168152602001908152602001600020600083815260200190815260200160002081905550806007600084815260200190815260200160002081905550505050565b6000808273ffffffffffffffffffffffffffffffffffffffff163b119050919050565b600061295461294f8461341a565b6133f5565b90508281526020810184848401111561296c57600080fd5b612977848285613597565b509392505050565b60008135905061298e81613c2b565b92915050565b6000813590506129a381613c42565b92915050565b6000813590506129b881613c59565b92915050565b6000815190506129cd81613c59565b92915050565b600082601f8301126129e457600080fd5b81356129f4848260208601612941565b91505092915050565b600081359050612a0c81613c70565b92915050565b600060208284031215612a2457600080fd5b6000612a328482850161297f565b91505092915050565b60008060408385031215612a4e57600080fd5b6000612a5c8582860161297f565b9250506020612a6d8582860161297f565b9150509250929050565b600080600060608486031215612a8c57600080fd5b6000612a9a8682870161297f565b9350506020612aab8682870161297f565b9250506040612abc868287016129fd565b9150509250925092565b60008060008060808587031215612adc57600080fd5b6000612aea8782880161297f565b9450506020612afb8782880161297f565b9350506040612b0c878288016129fd565b925050606085013567ffffffffffffffff811115612b2957600080fd5b612b35878288016129d3565b91505092959194509250565b60008060408385031215612b5457600080fd5b6000612b628582860161297f565b9250506020612b7385828601612994565b9150509250929050565b60008060408385031215612b9057600080fd5b6000612b9e8582860161297f565b9250506020612baf858286016129fd565b9150509250929050565b600060208284031215612bcb57600080fd5b6000612bd984828501612994565b91505092915050565b600060208284031215612bf457600080fd5b6000612c02848285016129a9565b91505092915050565b600060208284031215612c1d57600080fd5b6000612c2b848285016129be565b91505092915050565b600060208284031215612c4657600080fd5b6000612c54848285016129fd565b91505092915050565b612c6681613523565b82525050565b612c7581613535565b82525050565b6000612c868261344b565b612c908185613461565b9350612ca08185602086016135a6565b612ca9816136c9565b840191505092915050565b6000612cbf82613456565b612cc9818561347d565b9350612cd98185602086016135a6565b612ce2816136c9565b840191505092915050565b6000612cf882613456565b612d02818561348e565b9350612d128185602086016135a6565b80840191505092915050565b6000612d2b602d8361347d565b9150612d36826136da565b604082019050919050565b6000612d4e602b8361347d565b9150612d5982613729565b604082019050919050565b6000612d7160328361347d565b9150612d7c82613778565b604082019050919050565b6000612d9460268361347d565b9150612d9f826137c7565b604082019050919050565b6000612db760258361347d565b9150612dc282613816565b604082019050919050565b6000612dda601c8361347d565b9150612de582613865565b602082019050919050565b6000612dfd60148361347d565b9150612e088261388e565b602082019050919050565b6000612e2060248361347d565b9150612e2b826138b7565b604082019050919050565b6000612e4360198361347d565b9150612e4e82613906565b602082019050919050565b6000612e6660298361347d565b9150612e718261392f565b604082019050919050565b6000612e8960208361347d565b9150612e948261397e565b602082019050919050565b6000612eac60208361347d565b9150612eb7826139a7565b602082019050919050565b6000612ecf602f8361347d565b9150612eda826139d0565b604082019050919050565b6000612ef260198361347d565b9150612efd82613a1f565b602082019050919050565b6000612f1560188361347d565b9150612f2082613a48565b602082019050919050565b6000612f3860218361347d565b9150612f4382613a71565b604082019050919050565b6000612f5b60198361347d565b9150612f6682613ac0565b602082019050919050565b6000612f7e600083613472565b9150612f8982613ae9565b600082019050919050565b6000612fa1603d8361347d565b9150612fac82613aec565b604082019050919050565b6000612fc4602c8361347d565b9150612fcf82613b3b565b604082019050919050565b6000612fe7601e8361347d565b9150612ff282613b8a565b602082019050919050565b600061300a60358361347d565b915061301582613bb3565b604082019050919050565b600061302d60018361348e565b915061303882613c02565b600182019050919050565b61304c8161358d565b82525050565b600061305e8285612ced565b915061306982613020565b91506130758284612ced565b91508190509392505050565b600061308c82612f71565b9150819050919050565b60006020820190506130ab6000830184612c5d565b92915050565b60006080820190506130c66000830187612c5d565b6130d36020830186612c5d565b6130e06040830185613043565b81810360608301526130f28184612c7b565b905095945050505050565b60006020820190506131126000830184612c6c565b92915050565b600060208201905081810360008301526131328184612cb4565b905092915050565b6000602082019050818103600083015261315381612d1e565b9050919050565b6000602082019050818103600083015261317381612d41565b9050919050565b6000602082019050818103600083015261319381612d64565b9050919050565b600060208201905081810360008301526131b381612d87565b9050919050565b600060208201905081810360008301526131d381612daa565b9050919050565b600060208201905081810360008301526131f381612dcd565b9050919050565b6000602082019050818103600083015261321381612df0565b9050919050565b6000602082019050818103600083015261323381612e13565b9050919050565b6000602082019050818103600083015261325381612e36565b9050919050565b6000602082019050818103600083015261327381612e59565b9050919050565b6000602082019050818103600083015261329381612e7c565b9050919050565b600060208201905081810360008301526132b381612e9f565b9050919050565b600060208201905081810360008301526132d381612ec2565b9050919050565b600060208201905081810360008301526132f381612ee5565b9050919050565b6000602082019050818103600083015261331381612f08565b9050919050565b6000602082019050818103600083015261333381612f2b565b9050919050565b6000602082019050818103600083015261335381612f4e565b9050919050565b6000602082019050818103600083015261337381612f94565b9050919050565b6000602082019050818103600083015261339381612fb7565b9050919050565b600060208201905081810360008301526133b381612fda565b9050919050565b600060208201905081810360008301526133d381612ffd565b9050919050565b60006020820190506133ef6000830184613043565b92915050565b60006133ff613410565b905061340b828261360b565b919050565b6000604051905090565b600067ffffffffffffffff8211156134355761343461369a565b5b61343e826136c9565b9050602081019050919050565b600081519050919050565b600081519050919050565b600082825260208201905092915050565b600081905092915050565b600082825260208201905092915050565b600081905092915050565b60006134a48261358d565b91506134af8361358d565b9250827fffffffffffffffffffffffffffffffffffffffffffffffffffffffffffffffff038211156134e4576134e361363c565b5b828201905092915050565b60006134fa8261358d565b91506135058361358d565b9250828210156135185761351761363c565b5b828203905092915050565b600061352e8261356d565b9050919050565b60008115159050919050565b60007fffffffff0000000000000000000000000000000000000000000000000000000082169050919050565b600073ffffffffffffffffffffffffffffffffffffffff82169050919050565b6000819050919050565b82818337600083830152505050565b60005b838110156135c45780820151818401526020810190506135a9565b838111156135d3576000848401525b50505050565b600060028204905060018216806135f157607f821691505b602082108114156136055761360461366b565b5b50919050565b613614826136c9565b810181811067ffffffffffffffff821117156136335761363261369a565b5b80604052505050565b7f4e487b7100000000000000000000000000000000000000000000000000000000600052601160045260246000fd5b7f4e487b7100000000000000000000000000000000000000000000000000000000600052602260045260246000fd5b7f4e487b7100000000000000000000000000000000000000000000000000000000600052604160045260246000fd5b6000601f19601f8301169050919050565b7f4552433732313a2063616c6c6572206973206e6f7420746f6b656e206f776e6560008201527f72206f7220617070726f76656400000000000000000000000000000000000000602082015250565b7f455243373231456e756d657261626c653a206f776e657220696e646578206f7560008201527f74206f6620626f756e6473000000000000000000000000000000000000000000602082015250565b7f4552433732313a207472616e7366657220746f206e6f6e20455243373231526560008201527f63656976657220696d706c656d656e7465720000000000000000000000000000602082015250565b7f4f776e61626c653a206e6577206f776e657220697320746865207a65726f206160008201527f6464726573730000000000000000000000000000000000000000000000000000602082015250565b7f4552433732313a207472616e736665722066726f6d20696e636f72726563742060008201527f6f776e6572000000000000000000000000000000000000000000000000000000602082015250565b7f4552433732313a20746f6b656e20616c7265616479206d696e74656400000000600082015250565b7f4661696c656420746f2073656e64204574686572000000000000000000000000600082015250565b7f4552433732313a207472616e7366657220746f20746865207a65726f2061646460008201527f7265737300000000000000000000000000000000000000000000000000000000602082015250565b7f4552433732313a20617070726f766520746f2063616c6c657200000000000000600082015250565b7f4552433732313a2061646472657373207a65726f206973206e6f74206120766160008201527f6c6964206f776e65720000000000000000000000000000000000000000000000602082015250565b7f4552433732313a206d696e7420746f20746865207a65726f2061646472657373600082015250565b7f4f776e61626c653a2063616c6c6572206973206e6f7420746865206f776e6572600082015250565b7f4552433732314d657461646174613a2055524920717565727920666f72206e6f60008201527f6e6578697374656e7420746f6b656e0000000000000000000000000000000000602082015250565b7f436f6e74726163742063757272656e746c792070617573656400000000000000600082015250565b7f4552433732313a20696e76616c696420746f6b656e2049440000000000000000600082015250565b7f4552433732313a20617070726f76616c20746f2063757272656e74206f776e6560008201527f7200000000000000000000000000000000000000000000000000000000000000602082015250565b7f45746865722073656e74206973206e6f7420636f727265637400000000000000600082015250565b50565b7f4552433732313a20617070726f76652063616c6c6572206973206e6f7420746f60008201527f6b656e206f776e6572206f7220617070726f76656420666f7220616c6c000000602082015250565b7f455243373231456e756d657261626c653a20676c6f62616c20696e646578206f60008201527f7574206f6620626f756e64730000000000000000000000000000000000000000602082015250565b7f457863656564206d6178696d756d204c573350756e6b7320737570706c790000600082015250565b7f455243373231456e756d657261626c653a20636f6e736563757469766520747260008201527f616e7366657273206e6f7420737570706f727465640000000000000000000000602082015250565b7f2f00000000000000000000000000000000000000000000000000000000000000600082015250565b613c3481613523565b8114613c3f57600080fd5b50565b613c4b81613535565b8114613c5657600080fd5b50565b613c6281613541565b8114613c6d57600080fd5b50565b613c798161358d565b8114613c8457600080fd5b5056fea26469706673582212204b727d33fe8f21591f762cea9c01749c664def048683a19c4c2d786570cdfed164736f6c63430008040033",
  "linkReferences": {},
  "deployedLinkReferences": {}
}